{
  "_format": "hh-sol-artifact-1",
  "contractName": "ComplianceGuardian",
  "sourceName": "contracts/ComplianceGuardian.sol",
  "abi": [
    {
      "inputs": [
        {
          "internalType": "address",
          "name": "_auditLogAddress",
          "type": "address"
        }
      ],
      "stateMutability": "nonpayable",
      "type": "constructor"
    },
    {
      "anonymous": false,
      "inputs": [
        {
          "indexed": true,
          "internalType": "address",
          "name": "agent",
          "type": "address"
        }
      ],
      "name": "AgentFrozen",
      "type": "event"
    },
    {
      "anonymous": false,
      "inputs": [
        {
          "indexed": true,
          "internalType": "address",
          "name": "agent",
          "type": "address"
        }
      ],
      "name": "AgentWhitelisted",
      "type": "event"
    },
    {
      "anonymous": false,
      "inputs": [
        {
          "indexed": true,
          "internalType": "string",
          "name": "txId",
          "type": "string"
        },
        {
          "indexed": false,
          "internalType": "bool",
          "name": "approved",
          "type": "bool"
        },
        {
          "indexed": false,
          "internalType": "string",
          "name": "reason",
          "type": "string"
        }
      ],
      "name": "TransactionEvaluated",
      "type": "event"
    },
    {
      "inputs": [],
      "name": "auditLog",
      "outputs": [
        {
          "internalType": "contract IAuditLog",
          "name": "",
          "type": "address"
        }
      ],
      "stateMutability": "view",
      "type": "function"
    },
    {
      "inputs": [
        {
          "internalType": "string",
          "name": "txId",
          "type": "string"
        },
        {
          "internalType": "address",
          "name": "agent",
          "type": "address"
        },
        {
          "internalType": "uint256",
          "name": "amount",
          "type": "uint256"
        },
        {
          "internalType": "bool",
          "name": "isRiskHigh",
          "type": "bool"
        }
      ],
      "name": "evaluateTransaction",
      "outputs": [
        {
          "internalType": "bool",
          "name": "",
          "type": "bool"
        }
      ],
      "stateMutability": "nonpayable",
      "type": "function"
    },
    {
      "inputs": [
        {
          "internalType": "address",
          "name": "_agent",
          "type": "address"
        }
      ],
      "name": "freezeAgent",
      "outputs": [],
      "stateMutability": "nonpayable",
      "type": "function"
    },
    {
      "inputs": [
        {
          "internalType": "address",
          "name": "",
          "type": "address"
        }
      ],
      "name": "frozenWallets",
      "outputs": [
        {
          "internalType": "bool",
          "name": "",
          "type": "bool"
        }
      ],
      "stateMutability": "view",
      "type": "function"
    },
    {
      "inputs": [],
      "name": "owner",
      "outputs": [
        {
          "internalType": "address",
          "name": "",
          "type": "address"
        }
      ],
      "stateMutability": "view",
      "type": "function"
    },
    {
      "inputs": [
        {
          "internalType": "address",
          "name": "",
          "type": "address"
        }
      ],
      "name": "whitelist",
      "outputs": [
        {
          "internalType": "bool",
          "name": "",
          "type": "bool"
        }
      ],
      "stateMutability": "view",
      "type": "function"
    },
    {
      "inputs": [
        {
          "internalType": "address",
          "name": "_agent",
          "type": "address"
        }
      ],
      "name": "whitelistAgent",
      "outputs": [],
      "stateMutability": "nonpayable",
      "type": "function"
    }
  ],
  "bytecode": "0x60806040523480156200001157600080fd5b506040516200110538038062001105833981810160405281019062000037919062000129565b336000806101000a81548173ffffffffffffffffffffffffffffffffffffffff021916908373ffffffffffffffffffffffffffffffffffffffff16021790555080600160006101000a81548173ffffffffffffffffffffffffffffffffffffffff021916908373ffffffffffffffffffffffffffffffffffffffff160217905550506200015b565b600080fd5b600073ffffffffffffffffffffffffffffffffffffffff82169050919050565b6000620000f182620000c4565b9050919050565b6200010381620000e4565b81146200010f57600080fd5b50565b6000815190506200012381620000f8565b92915050565b600060208284031215620001425762000141620000bf565b5b6000620001528482850162000112565b91505092915050565b610f9a806200016b6000396000f3fe608060405234801561001057600080fd5b506004361061007d5760003560e01c80635b1f95a81161005b5780635b1f95a8146100ec57806371849403146101085780638da5cb5b146101385780639b19251a146101565761007d565b806308db0bf014610082578063267fbac5146100b25780635a2d6ebd146100ce575b600080fd5b61009c600480360381019061009791906109af565b610186565b6040516100a99190610a41565b60405180910390f35b6100cc60048036038101906100c79190610a5c565b610391565b005b6100d6610548565b6040516100e39190610ae8565b60405180910390f35b61010660048036038101906101019190610a5c565b61056e565b005b610122600480360381019061011d9190610a5c565b610725565b60405161012f9190610a41565b60405180910390f35b610140610745565b60405161014d9190610b12565b60405180910390f35b610170600480360381019061016b9190610a5c565b610769565b60405161017d9190610a41565b60405180910390f35b6000600360008573ffffffffffffffffffffffffffffffffffffffff1673ffffffffffffffffffffffffffffffffffffffff16815260200190815260200160002060009054906101000a900460ff161561023157846040516101e89190610b9e565b60405180910390207ff2356c337a87985772b0c791176e6337c14356d692af02ec1df654d9664c584d60006040516102209190610c12565b60405180910390a260009050610389565b600260008573ffffffffffffffffffffffffffffffffffffffff1673ffffffffffffffffffffffffffffffffffffffff16815260200190815260200160002060009054906101000a900460ff166102d957846040516102909190610b9e565b60405180910390207ff2356c337a87985772b0c791176e6337c14356d692af02ec1df654d9664c584d60006040516102c89190610c8c565b60405180910390a260009050610389565b811561033657846040516102ed9190610b9e565b60405180910390207ff2356c337a87985772b0c791176e6337c14356d692af02ec1df654d9664c584d60006040516103259190610d06565b60405180910390a260009050610389565b846040516103449190610b9e565b60405180910390207ff2356c337a87985772b0c791176e6337c14356d692af02ec1df654d9664c584d600160405161037c9190610d80565b60405180910390a2600190505b949350505050565b60008054906101000a900473ffffffffffffffffffffffffffffffffffffffff1673ffffffffffffffffffffffffffffffffffffffff163373ffffffffffffffffffffffffffffffffffffffff161461041f576040517f08c379a000000000000000000000000000000000000000000000000000000000815260040161041690610dfa565b60405180910390fd5b6001600360008373ffffffffffffffffffffffffffffffffffffffff1673ffffffffffffffffffffffffffffffffffffffff16815260200190815260200160002060006101000a81548160ff0219169083151502179055508073ffffffffffffffffffffffffffffffffffffffff167f9952a16eccd256462730e4f6bc004a7e5b1177d4ae73dd260c6e2f32bd839b5060405160405180910390a2600160009054906101000a900473ffffffffffffffffffffffffffffffffffffffff1673ffffffffffffffffffffffffffffffffffffffff166386c440c96040518163ffffffff1660e01b815260040161051390610e8c565b600060405180830381600087803b15801561052d57600080fd5b505af1158015610541573d6000803e3d6000fd5b5050505050565b600160009054906101000a900473ffffffffffffffffffffffffffffffffffffffff1681565b60008054906101000a900473ffffffffffffffffffffffffffffffffffffffff1673ffffffffffffffffffffffffffffffffffffffff163373ffffffffffffffffffffffffffffffffffffffff16146105fc576040517f08c379a00000000000000000000000000000000000000000000000000000000081526004016105f390610dfa565b60405180910390fd5b6001600260008373ffffffffffffffffffffffffffffffffffffffff1673ffffffffffffffffffffffffffffffffffffffff16815260200190815260200160002060006101000a81548160ff0219169083151502179055508073ffffffffffffffffffffffffffffffffffffffff167fd39a381f419f0fc53e110f17f90095585db0034586dbf907597ac38780af30dd60405160405180910390a2600160009054906101000a900473ffffffffffffffffffffffffffffffffffffffff1673ffffffffffffffffffffffffffffffffffffffff166386c440c96040518163ffffffff1660e01b81526004016106f090610f1e565b600060405180830381600087803b15801561070a57600080fd5b505af115801561071e573d6000803e3d6000fd5b5050505050565b60036020528060005260406000206000915054906101000a900460ff1681565b60008054906101000a900473ffffffffffffffffffffffffffffffffffffffff1681565b60026020528060005260406000206000915054906101000a900460ff1681565b6000604051905090565b600080fd5b600080fd5b600080fd5b600080fd5b6000601f19601f8301169050919050565b7f4e487b7100000000000000000000000000000000000000000000000000000000600052604160045260246000fd5b6107f0826107a7565b810181811067ffffffffffffffff8211171561080f5761080e6107b8565b5b80604052505050565b6000610822610789565b905061082e82826107e7565b919050565b600067ffffffffffffffff82111561084e5761084d6107b8565b5b610857826107a7565b9050602081019050919050565b82818337600083830152505050565b600061088661088184610833565b610818565b9050828152602081018484840111156108a2576108a16107a2565b5b6108ad848285610864565b509392505050565b600082601f8301126108ca576108c961079d565b5b81356108da848260208601610873565b91505092915050565b600073ffffffffffffffffffffffffffffffffffffffff82169050919050565b600061090e826108e3565b9050919050565b61091e81610903565b811461092957600080fd5b50565b60008135905061093b81610915565b92915050565b6000819050919050565b61095481610941565b811461095f57600080fd5b50565b6000813590506109718161094b565b92915050565b60008115159050919050565b61098c81610977565b811461099757600080fd5b50565b6000813590506109a981610983565b92915050565b600080600080608085870312156109c9576109c8610793565b5b600085013567ffffffffffffffff8111156109e7576109e6610798565b5b6109f3878288016108b5565b9450506020610a048782880161092c565b9350506040610a1587828801610962565b9250506060610a268782880161099a565b91505092959194509250565b610a3b81610977565b82525050565b6000602082019050610a566000830184610a32565b92915050565b600060208284031215610a7257610a71610793565b5b6000610a808482850161092c565b91505092915050565b6000819050919050565b6000610aae610aa9610aa4846108e3565b610a89565b6108e3565b9050919050565b6000610ac082610a93565b9050919050565b6000610ad282610ab5565b9050919050565b610ae281610ac7565b82525050565b6000602082019050610afd6000830184610ad9565b92915050565b610b0c81610903565b82525050565b6000602082019050610b276000830184610b03565b92915050565b600081519050919050565b600081905092915050565b60005b83811015610b61578082015181840152602081019050610b46565b60008484015250505050565b6000610b7882610b2d565b610b828185610b38565b9350610b92818560208601610b43565b80840191505092915050565b6000610baa8284610b6d565b915081905092915050565b600082825260208201905092915050565b7f4147454e545f46524f5a454e0000000000000000000000000000000000000000600082015250565b6000610bfc600c83610bb5565b9150610c0782610bc6565b602082019050919050565b6000604082019050610c276000830184610a32565b8181036020830152610c3881610bef565b905092915050565b7f4147454e545f4e4f545f57484954454c49535445440000000000000000000000600082015250565b6000610c76601583610bb5565b9150610c8182610c40565b602082019050919050565b6000604082019050610ca16000830184610a32565b8181036020830152610cb281610c69565b905092915050565b7f5249534b5f544f4f5f4849474800000000000000000000000000000000000000600082015250565b6000610cf0600d83610bb5565b9150610cfb82610cba565b602082019050919050565b6000604082019050610d1b6000830184610a32565b8181036020830152610d2c81610ce3565b905092915050565b7f415050524f564544000000000000000000000000000000000000000000000000600082015250565b6000610d6a600883610bb5565b9150610d7582610d34565b602082019050919050565b6000604082019050610d956000830184610a32565b8181036020830152610da681610d5d565b905092915050565b7f4f6e6c79206f776e657200000000000000000000000000000000000000000000600082015250565b6000610de4600a83610bb5565b9150610def82610dae565b602082019050919050565b60006020820190508181036000830152610e1381610dd7565b9050919050565b7f53595354454d0000000000000000000000000000000000000000000000000000600082015250565b6000610e50600683610bb5565b9150610e5b82610e1a565b602082019050919050565b50565b6000610e76600083610bb5565b9150610e8182610e66565b600082019050919050565b60006060820190508181036000830152610ea581610e43565b90508181036020830152610eb881610bef565b90508181036040830152610ecb81610e69565b9050919050565b7f4147454e545f57484954454c4953544544000000000000000000000000000000600082015250565b6000610f08601183610bb5565b9150610f1382610ed2565b602082019050919050565b60006060820190508181036000830152610f3781610e43565b90508181036020830152610f4a81610efb565b90508181036040830152610f5d81610e69565b905091905056fea26469706673582212202d826c502798ce131fa9088070e6b9c98bea34953cbbfc15e1415bf4924f3f1a64736f6c63430008140033",
  "linkReferences": {},
  "deployedLinkReferences": {}
}